{
  "contractName": "ERC20Token",
  "abi": [
    {
      "inputs": [
        {
          "internalType": "string",
          "name": "_name",
          "type": "string"
        },
        {
          "internalType": "string",
          "name": "_symbol",
          "type": "string"
        },
        {
          "internalType": "uint8",
          "name": "_decimals",
          "type": "uint8"
        },
        {
          "internalType": "uint256",
          "name": "_initialSupply",
          "type": "uint256"
        }
      ],
      "stateMutability": "nonpayable",
      "type": "constructor"
    },
    {
      "anonymous": false,
      "inputs": [
        {
          "indexed": true,
          "internalType": "address",
          "name": "tokenOwner",
          "type": "address"
        },
        {
          "indexed": true,
          "internalType": "address",
          "name": "spender",
          "type": "address"
        },
        {
          "indexed": false,
          "internalType": "uint256",
          "name": "tokens",
          "type": "uint256"
        }
      ],
      "name": "Approval",
      "type": "event"
    },
    {
      "anonymous": false,
      "inputs": [
        {
          "indexed": true,
          "internalType": "address",
          "name": "from",
          "type": "address"
        },
        {
          "indexed": true,
          "internalType": "address",
          "name": "to",
          "type": "address"
        },
        {
          "indexed": false,
          "internalType": "uint256",
          "name": "tokens",
          "type": "uint256"
        }
      ],
      "name": "Transfer",
      "type": "event"
    },
    {
      "inputs": [],
      "name": "_totalSupply",
      "outputs": [
        {
          "internalType": "uint256",
          "name": "",
          "type": "uint256"
        }
      ],
      "stateMutability": "view",
      "type": "function",
      "constant": true
    },
    {
      "inputs": [
        {
          "internalType": "address",
          "name": "",
          "type": "address"
        },
        {
          "internalType": "address",
          "name": "",
          "type": "address"
        }
      ],
      "name": "allowed",
      "outputs": [
        {
          "internalType": "uint256",
          "name": "",
          "type": "uint256"
        }
      ],
      "stateMutability": "view",
      "type": "function",
      "constant": true
    },
    {
      "inputs": [
        {
          "internalType": "address",
          "name": "",
          "type": "address"
        }
      ],
      "name": "balances",
      "outputs": [
        {
          "internalType": "uint256",
          "name": "",
          "type": "uint256"
        }
      ],
      "stateMutability": "view",
      "type": "function",
      "constant": true
    },
    {
      "inputs": [],
      "name": "decimals",
      "outputs": [
        {
          "internalType": "uint256",
          "name": "",
          "type": "uint256"
        }
      ],
      "stateMutability": "view",
      "type": "function",
      "constant": true
    },
    {
      "inputs": [],
      "name": "name",
      "outputs": [
        {
          "internalType": "string",
          "name": "",
          "type": "string"
        }
      ],
      "stateMutability": "view",
      "type": "function",
      "constant": true
    },
    {
      "inputs": [],
      "name": "symbol",
      "outputs": [
        {
          "internalType": "string",
          "name": "",
          "type": "string"
        }
      ],
      "stateMutability": "view",
      "type": "function",
      "constant": true
    },
    {
      "inputs": [
        {
          "internalType": "address",
          "name": "to",
          "type": "address"
        },
        {
          "internalType": "uint256",
          "name": "value",
          "type": "uint256"
        }
      ],
      "name": "transfer",
      "outputs": [
        {
          "internalType": "bool",
          "name": "",
          "type": "bool"
        }
      ],
      "stateMutability": "nonpayable",
      "type": "function"
    },
    {
      "inputs": [
        {
          "internalType": "address",
          "name": "from",
          "type": "address"
        },
        {
          "internalType": "address",
          "name": "to",
          "type": "address"
        },
        {
          "internalType": "uint256",
          "name": "value",
          "type": "uint256"
        }
      ],
      "name": "transferFrom",
      "outputs": [
        {
          "internalType": "bool",
          "name": "",
          "type": "bool"
        }
      ],
      "stateMutability": "nonpayable",
      "type": "function"
    },
    {
      "inputs": [
        {
          "internalType": "address",
          "name": "spender",
          "type": "address"
        },
        {
          "internalType": "uint256",
          "name": "value",
          "type": "uint256"
        }
      ],
      "name": "approve",
      "outputs": [
        {
          "internalType": "bool",
          "name": "",
          "type": "bool"
        }
      ],
      "stateMutability": "nonpayable",
      "type": "function"
    },
    {
      "inputs": [
        {
          "internalType": "address",
          "name": "owner",
          "type": "address"
        },
        {
          "internalType": "address",
          "name": "spender",
          "type": "address"
        }
      ],
      "name": "allowance",
      "outputs": [
        {
          "internalType": "uint256",
          "name": "",
          "type": "uint256"
        }
      ],
      "stateMutability": "view",
      "type": "function",
      "constant": true
    },
    {
      "inputs": [
        {
          "internalType": "address",
          "name": "owner",
          "type": "address"
        }
      ],
      "name": "balanceOf",
      "outputs": [
        {
          "internalType": "uint256",
          "name": "",
          "type": "uint256"
        }
      ],
      "stateMutability": "view",
      "type": "function",
      "constant": true
    },
    {
      "inputs": [],
      "name": "totalSupply",
      "outputs": [
        {
          "internalType": "uint256",
          "name": "",
          "type": "uint256"
        }
      ],
      "stateMutability": "view",
      "type": "function",
      "constant": true
    }
  ],
  "bytecode": "0x60806040523480156200001157600080fd5b50604051620013793803806200137983398181016040528101906200003791906200021a565b83600090805190602001906200004f929190620000ca565b50826001908051906020019062000068929190620000ca565b508160ff1660028190555080600381905550600354600460003373ffffffffffffffffffffffffffffffffffffffff1673ffffffffffffffffffffffffffffffffffffffff168152602001908152602001600020819055505050505062000434565b828054620000d8906200036c565b90600052602060002090601f016020900481019282620000fc576000855562000148565b82601f106200011757805160ff191683800117855562000148565b8280016001018555821562000148579182015b82811115620001475782518255916020019190600101906200012a565b5b5090506200015791906200015b565b5090565b5b80821115620001765760008160009055506001016200015c565b5090565b6000620001916200018b84620002ec565b620002b8565b905082815260208101848484011115620001aa57600080fd5b620001b784828562000336565b509392505050565b600082601f830112620001d157600080fd5b8151620001e38482602086016200017a565b91505092915050565b600081519050620001fd8162000400565b92915050565b60008151905062000214816200041a565b92915050565b600080600080608085870312156200023157600080fd5b600085015167ffffffffffffffff8111156200024c57600080fd5b6200025a87828801620001bf565b945050602085015167ffffffffffffffff8111156200027857600080fd5b6200028687828801620001bf565b9350506040620002998782880162000203565b9250506060620002ac87828801620001ec565b91505092959194509250565b6000604051905081810181811067ffffffffffffffff82111715620002e257620002e1620003d1565b5b8060405250919050565b600067ffffffffffffffff8211156200030a5762000309620003d1565b5b601f19601f8301169050602081019050919050565b6000819050919050565b600060ff82169050919050565b60005b838110156200035657808201518184015260208101905062000339565b8381111562000366576000848401525b50505050565b600060028204905060018216806200038557607f821691505b602082108114156200039c576200039b620003a2565b5b50919050565b7f4e487b7100000000000000000000000000000000000000000000000000000000600052602260045260246000fd5b7f4e487b7100000000000000000000000000000000000000000000000000000000600052604160045260246000fd5b6200040b816200031f565b81146200041757600080fd5b50565b620004258162000329565b81146200043157600080fd5b50565b610f3580620004446000396000f3fe608060405234801561001057600080fd5b50600436106100d1576000357c0100000000000000000000000000000000000000000000000000000000900480633eaaf86b1161008e5780633eaaf86b146101c05780635c658165146101de57806370a082311461020e57806395d89b411461023e578063a9059cbb1461025c578063dd62ed3e1461028c576100d1565b806306fdde03146100d6578063095ea7b3146100f457806318160ddd1461012457806323b872dd1461014257806327e235e314610172578063313ce567146101a2575b600080fd5b6100de6102bc565b6040516100eb9190610c92565b60405180910390f35b61010e60048036038101906101099190610b64565b61034a565b60405161011b9190610c77565b60405180910390f35b61012c610475565b6040516101399190610cf4565b60405180910390f35b61015c60048036038101906101579190610b15565b61047f565b6040516101699190610c77565b60405180910390f35b61018c60048036038101906101879190610ab0565b610776565b6040516101999190610cf4565b60405180910390f35b6101aa61078e565b6040516101b79190610cf4565b60405180910390f35b6101c8610794565b6040516101d59190610cf4565b60405180910390f35b6101f860048036038101906101f39190610ad9565b61079a565b6040516102059190610cf4565b60405180910390f35b61022860048036038101906102239190610ab0565b6107bf565b6040516102359190610cf4565b60405180910390f35b610246610808565b6040516102539190610c92565b60405180910390f35b61027660048036038101906102719190610b64565b610896565b6040516102839190610c77565b60405180910390f35b6102a660048036038101906102a19190610ad9565b6109ff565b6040516102b39190610cf4565b60405180910390f35b600080546102c990610e30565b80601f01602080910402602001604051908101604052809291908181526020018280546102f590610e30565b80156103425780601f1061031757610100808354040283529160200191610342565b820191906000526020600020905b81548152906001019060200180831161032557829003601f168201915b505050505081565b60003373ffffffffffffffffffffffffffffffffffffffff168373ffffffffffffffffffffffffffffffffffffffff16141561038557600080fd5b81600560003373ffffffffffffffffffffffffffffffffffffffff1673ffffffffffffffffffffffffffffffffffffffff16815260200190815260200160002060008573ffffffffffffffffffffffffffffffffffffffff1673ffffffffffffffffffffffffffffffffffffffff168152602001908152602001600020819055508273ffffffffffffffffffffffffffffffffffffffff163373ffffffffffffffffffffffffffffffffffffffff167f8c5be1e5ebec7d5bd14f71427d1e84f3dd0314c0f7b2291e5b200ac8c7c3b925846040516104639190610cf4565b60405180910390a36001905092915050565b6000600354905090565b600080600560008673ffffffffffffffffffffffffffffffffffffffff1673ffffffffffffffffffffffffffffffffffffffff16815260200190815260200160002060003373ffffffffffffffffffffffffffffffffffffffff1673ffffffffffffffffffffffffffffffffffffffff16815260200190815260200160002054905082811015610544576040517f08c379a000000000000000000000000000000000000000000000000000000000815260040161053b90610cb4565b60405180910390fd5b82600460008773ffffffffffffffffffffffffffffffffffffffff1673ffffffffffffffffffffffffffffffffffffffff1681526020019081526020016000205410156105c6576040517f08c379a00000000000000000000000000000000000000000000000000000000081526004016105bd90610cd4565b60405180910390fd5b82600560008773ffffffffffffffffffffffffffffffffffffffff1673ffffffffffffffffffffffffffffffffffffffff16815260200190815260200160002060003373ffffffffffffffffffffffffffffffffffffffff1673ffffffffffffffffffffffffffffffffffffffff16815260200190815260200160002060008282546106529190610d81565b9250508190555082600460008773ffffffffffffffffffffffffffffffffffffffff1673ffffffffffffffffffffffffffffffffffffffff16815260200190815260200160002060008282546106a89190610d81565b9250508190555082600460008673ffffffffffffffffffffffffffffffffffffffff1673ffffffffffffffffffffffffffffffffffffffff16815260200190815260200160002060008282546106fe9190610d2b565b925050819055508373ffffffffffffffffffffffffffffffffffffffff168573ffffffffffffffffffffffffffffffffffffffff167fddf252ad1be2c89b69c2b068fc378daa952ba7f163c4a11628f55a4df523b3ef856040516107629190610cf4565b60405180910390a360019150509392505050565b60046020528060005260406000206000915090505481565b60025481565b60035481565b6005602052816000526040600020602052806000526040600020600091509150505481565b6000600460008373ffffffffffffffffffffffffffffffffffffffff1673ffffffffffffffffffffffffffffffffffffffff168152602001908152602001600020549050919050565b6001805461081590610e30565b80601f016020809104026020016040519081016040528092919081815260200182805461084190610e30565b801561088e5780601f106108635761010080835404028352916020019161088e565b820191906000526020600020905b81548152906001019060200180831161087157829003601f168201915b505050505081565b600081600460003373ffffffffffffffffffffffffffffffffffffffff1673ffffffffffffffffffffffffffffffffffffffff1681526020019081526020016000205410156108e457600080fd5b81600460003373ffffffffffffffffffffffffffffffffffffffff1673ffffffffffffffffffffffffffffffffffffffff16815260200190815260200160002060008282546109339190610d81565b9250508190555081600460008573ffffffffffffffffffffffffffffffffffffffff1673ffffffffffffffffffffffffffffffffffffffff16815260200190815260200160002060008282546109899190610d2b565b925050819055508273ffffffffffffffffffffffffffffffffffffffff163373ffffffffffffffffffffffffffffffffffffffff167fddf252ad1be2c89b69c2b068fc378daa952ba7f163c4a11628f55a4df523b3ef846040516109ed9190610cf4565b60405180910390a36001905092915050565b6000600560008473ffffffffffffffffffffffffffffffffffffffff1673ffffffffffffffffffffffffffffffffffffffff16815260200190815260200160002060008373ffffffffffffffffffffffffffffffffffffffff1673ffffffffffffffffffffffffffffffffffffffff16815260200190815260200160002054905092915050565b600081359050610a9581610ed1565b92915050565b600081359050610aaa81610ee8565b92915050565b600060208284031215610ac257600080fd5b6000610ad084828501610a86565b91505092915050565b60008060408385031215610aec57600080fd5b6000610afa85828601610a86565b9250506020610b0b85828601610a86565b9150509250929050565b600080600060608486031215610b2a57600080fd5b6000610b3886828701610a86565b9350506020610b4986828701610a86565b9250506040610b5a86828701610a9b565b9150509250925092565b60008060408385031215610b7757600080fd5b6000610b8585828601610a86565b9250506020610b9685828601610a9b565b9150509250929050565b610ba981610dc7565b82525050565b6000610bba82610d0f565b610bc48185610d1a565b9350610bd4818560208601610dfd565b610bdd81610ec0565b840191505092915050565b6000610bf5601183610d1a565b91507f616c6c6f77616e636520746f6f206c6f770000000000000000000000000000006000830152602082019050919050565b6000610c35601583610d1a565b91507f746f6b656e2062616c616e636520746f6f206c6f7700000000000000000000006000830152602082019050919050565b610c7181610df3565b82525050565b6000602082019050610c8c6000830184610ba0565b92915050565b60006020820190508181036000830152610cac8184610baf565b905092915050565b60006020820190508181036000830152610ccd81610be8565b9050919050565b60006020820190508181036000830152610ced81610c28565b9050919050565b6000602082019050610d096000830184610c68565b92915050565b600081519050919050565b600082825260208201905092915050565b6000610d3682610df3565b9150610d4183610df3565b9250827fffffffffffffffffffffffffffffffffffffffffffffffffffffffffffffffff03821115610d7657610d75610e62565b5b828201905092915050565b6000610d8c82610df3565b9150610d9783610df3565b925082821015610daa57610da9610e62565b5b828203905092915050565b6000610dc082610dd3565b9050919050565b60008115159050919050565b600073ffffffffffffffffffffffffffffffffffffffff82169050919050565b6000819050919050565b60005b83811015610e1b578082015181840152602081019050610e00565b83811115610e2a576000848401525b50505050565b60006002820490506001821680610e4857607f821691505b60208210811415610e5c57610e5b610e91565b5b50919050565b7f4e487b7100000000000000000000000000000000000000000000000000000000600052601160045260246000fd5b7f4e487b7100000000000000000000000000000000000000000000000000000000600052602260045260246000fd5b6000601f19601f8301169050919050565b610eda81610db5565b8114610ee557600080fd5b50565b610ef181610df3565b8114610efc57600080fd5b5056fea264697066735822122046e9d69cd63b6bf3b637b60c30135785692f8d99ca338a00695cb0f96d81202464736f6c63430008000033",
  "immutableReferences": {},
  "source": "// SPDX-License-Identifier: MIT\npragma solidity ^0.8.0;\n\ninterface ERC20Interface {\n    function transfer(address to, uint256 tokens)\n        external\n        returns (bool success);\n\n    function transferFrom(\n        address from,\n        address to,\n        uint256 tokens\n    ) external returns (bool success);\n\n    function balanceOf(address tokenOwner)\n        external\n        view\n        returns (uint256 balance);\n\n    function approve(address spender, uint256 tokens)\n        external\n        returns (bool success);\n\n    function allowance(address tokenOwner, address spender)\n        external\n        view\n        returns (uint256 remaining);\n\n    function totalSupply() external view returns (uint256);\n\n    event Transfer(address indexed from, address indexed to, uint256 tokens);\n    event Approval(\n        address indexed tokenOwner,\n        address indexed spender,\n        uint256 tokens\n    );\n}\n\ncontract ERC20Token is ERC20Interface {\n    string public name;\n    string public symbol;\n    uint256 public decimals;\n    uint256 public _totalSupply;\n    mapping(address => uint256) public balances;\n    mapping(address => mapping(address => uint256)) public allowed;\n\n    constructor(\n        string memory _name,\n        string memory _symbol,\n        uint8 _decimals,\n        uint256 _initialSupply\n    ) {\n        name = _name;\n        symbol = _symbol;\n        decimals = _decimals;\n        _totalSupply = _initialSupply;\n        balances[msg.sender] = _totalSupply;\n    }\n\n    function transfer(address to, uint256 value)\n        public\n        override\n        returns (bool)\n    {\n        require(balances[msg.sender] >= value);\n        balances[msg.sender] -= value;\n        balances[to] += value;\n        emit Transfer(msg.sender, to, value);\n        return true;\n    }\n\n    function transferFrom(\n        address from,\n        address to,\n        uint256 value\n    ) public override returns (bool) {\n        uint256 allowances = allowed[from][msg.sender];\n        require(allowances >= value, \"allowance too low\");\n        require(balances[from] >= value, \"token balance too low\");\n        allowed[from][msg.sender] -= value;\n        balances[from] -= value;\n        balances[to] += value;\n        emit Transfer(from, to, value);\n        return true;\n    }\n\n    function approve(address spender, uint256 value)\n        public\n        override\n        returns (bool)\n    {\n        require(spender != msg.sender);\n        allowed[msg.sender][spender] = value;\n        emit Approval(msg.sender, spender, value);\n        return true;\n    }\n\n    function allowance(address owner, address spender)\n        public\n        view\n        override\n        returns (uint256)\n    {\n        return allowed[owner][spender];\n    }\n\n    function balanceOf(address owner) public view override returns (uint256) {\n        return balances[owner];\n    }\n\n    function totalSupply() public view override returns (uint256) {\n        return _totalSupply;\n    }\n}\n",
  "sourcePath": "/Users/jasonha/Desktop/demos/smart_contracts/ERC20_token/smart_contract/contracts/ERC20Token.sol",
  "compiler": {
    "name": "solc",
    "version": "0.8.0+commit.c7dfd78e.Emscripten.clang"
  },
  "schemaVersion": "3.4.5",
  "updatedAt": "2022-03-10T20:59:31.539Z",
  "networkType": "ethereum",
  "devdoc": {
    "kind": "dev",
    "methods": {},
    "version": 1
  },
  "userdoc": {
    "kind": "user",
    "methods": {},
    "version": 1
  }
}